:100000000209238B168A1789188C198D1AE4F51B9F
:10001000AF1BEF3395E0FEC3EF951AE5196480F846
:10002000EE648098504BC2A5EF3395E0FEAB16E529
:1000300018251AF9E5173519FAC3E99FF9EA9EFA66
:1000400090FFFF1208F6FDE4FB7E007480A8030811
:100050008006CEA2E713CE13D8F8FFEDF582EF5558
:100060008224FF92A3C2A4D2A40BBB08DC051B8090
:100070009FD2A52278127C007D007BFF7A0079BB9D
:100080007E007F041208D07B007A0079127D047C08
:100090000012000380F1E4FDEDC39FEE6480F8746C
:1000A00080985009E4FC0CBC7BFC0D80EB220A0814
:0F00B0000A7E8C2C7829096E0828007E8C2C780B
:10080000E709F608DFFA8046E709F208DFFA803EDA
:1008100088828C83E709F0A3DFFA8032E309F608C7
:10082000DFFA8078E309F208DFFA807088828C832F
:10083000E309F0A3DFFA806489828A83E0A3F608E3
:10084000DFFA805889828A83E0A3F208DFFA804CBD
:1008500080D280FA80C680D4806980F28033801094
:1008600080A680EA809A80A880DA80E280CA8033FD
:1008700089828A83ECFAE493A3C8C582C8CCC58375
:10088000CCF0A3C8C582C8CCC583CCDFE9DEE78045
:100890000D89828A83E493A3F608DFF9ECFAA9F0C4
:1008A000EDFB2289828A83ECFAE0A3C8C582C8CC1A
:1008B000C583CCF0A3C8C582C8CCC583CCDFEADE33
:1008C000E880DB89828A83E493A3F208DFF980CC95
:1008D00088F0EF60010E4E60C388F0ED2402B4048E
:1008E0000050B9F582EB2402B4040050AF23234535
:1008F000822390085073BB010CE58229F582E583C1
:100900003AF583E0225006E92582F8E622BBFE068E
:10091000E92582F8E222E58229F582E5833AF5832A
:10092000E49322787FE4F6D8FD75811B02096A0200
:100930000074E493A3F8E493A34003F68001F20863
:10094000DFF48029E493A3F85407240CC8C333C40C
:10095000540F4420C8834004F456800146F6DFE477
:10096000800B01020408102040809000AEE47E015C
:100970009360BCA3FF543F30E509541FFEE493A3EA
:1009800060010ECF54C025E060A840B8E493A3FAFC
:10099000E493A3F8E493A3C8C582C8CAC583CAF088
:0F09A000A3C8C582C8CAC583CADFE9DEE780BE27
:00000001FF
